{
  "_format": "hh-sol-artifact-1",
  "contractName": "GPTStore",
  "sourceName": "contracts/GPTStore.sol",
  "abi": [
    {
      "inputs": [],
      "stateMutability": "nonpayable",
      "type": "constructor"
    },
    {
      "inputs": [
        {
          "internalType": "address",
          "name": "sender",
          "type": "address"
        },
        {
          "internalType": "uint256",
          "name": "tokenId",
          "type": "uint256"
        },
        {
          "internalType": "address",
          "name": "owner",
          "type": "address"
        }
      ],
      "name": "ERC721IncorrectOwner",
      "type": "error"
    },
    {
      "inputs": [
        {
          "internalType": "address",
          "name": "operator",
          "type": "address"
        },
        {
          "internalType": "uint256",
          "name": "tokenId",
          "type": "uint256"
        }
      ],
      "name": "ERC721InsufficientApproval",
      "type": "error"
    },
    {
      "inputs": [
        {
          "internalType": "address",
          "name": "approver",
          "type": "address"
        }
      ],
      "name": "ERC721InvalidApprover",
      "type": "error"
    },
    {
      "inputs": [
        {
          "internalType": "address",
          "name": "operator",
          "type": "address"
        }
      ],
      "name": "ERC721InvalidOperator",
      "type": "error"
    },
    {
      "inputs": [
        {
          "internalType": "address",
          "name": "owner",
          "type": "address"
        }
      ],
      "name": "ERC721InvalidOwner",
      "type": "error"
    },
    {
      "inputs": [
        {
          "internalType": "address",
          "name": "receiver",
          "type": "address"
        }
      ],
      "name": "ERC721InvalidReceiver",
      "type": "error"
    },
    {
      "inputs": [
        {
          "internalType": "address",
          "name": "sender",
          "type": "address"
        }
      ],
      "name": "ERC721InvalidSender",
      "type": "error"
    },
    {
      "inputs": [
        {
          "internalType": "uint256",
          "name": "tokenId",
          "type": "uint256"
        }
      ],
      "name": "ERC721NonexistentToken",
      "type": "error"
    },
    {
      "inputs": [],
      "name": "ReentrancyGuardReentrantCall",
      "type": "error"
    },
    {
      "anonymous": false,
      "inputs": [
        {
          "indexed": true,
          "internalType": "address",
          "name": "owner",
          "type": "address"
        },
        {
          "indexed": true,
          "internalType": "address",
          "name": "approved",
          "type": "address"
        },
        {
          "indexed": true,
          "internalType": "uint256",
          "name": "tokenId",
          "type": "uint256"
        }
      ],
      "name": "Approval",
      "type": "event"
    },
    {
      "anonymous": false,
      "inputs": [
        {
          "indexed": true,
          "internalType": "address",
          "name": "owner",
          "type": "address"
        },
        {
          "indexed": true,
          "internalType": "address",
          "name": "operator",
          "type": "address"
        },
        {
          "indexed": false,
          "internalType": "bool",
          "name": "approved",
          "type": "bool"
        }
      ],
      "name": "ApprovalForAll",
      "type": "event"
    },
    {
      "anonymous": false,
      "inputs": [
        {
          "indexed": false,
          "internalType": "uint256",
          "name": "_fromTokenId",
          "type": "uint256"
        },
        {
          "indexed": false,
          "internalType": "uint256",
          "name": "_toTokenId",
          "type": "uint256"
        }
      ],
      "name": "BatchMetadataUpdate",
      "type": "event"
    },
    {
      "anonymous": false,
      "inputs": [
        {
          "indexed": false,
          "internalType": "uint256",
          "name": "_tokenId",
          "type": "uint256"
        }
      ],
      "name": "MetadataUpdate",
      "type": "event"
    },
    {
      "anonymous": false,
      "inputs": [
        {
          "indexed": false,
          "internalType": "uint256",
          "name": "nftId",
          "type": "uint256"
        },
        {
          "indexed": true,
          "internalType": "address",
          "name": "user",
          "type": "address"
        }
      ],
      "name": "Rent",
      "type": "event"
    },
    {
      "anonymous": false,
      "inputs": [
        {
          "indexed": true,
          "internalType": "address",
          "name": "from",
          "type": "address"
        },
        {
          "indexed": true,
          "internalType": "address",
          "name": "to",
          "type": "address"
        },
        {
          "indexed": true,
          "internalType": "uint256",
          "name": "tokenId",
          "type": "uint256"
        }
      ],
      "name": "Transfer",
      "type": "event"
    },
    {
      "anonymous": false,
      "inputs": [
        {
          "indexed": true,
          "internalType": "uint256",
          "name": "tokenId",
          "type": "uint256"
        },
        {
          "indexed": true,
          "internalType": "address",
          "name": "user",
          "type": "address"
        },
        {
          "indexed": false,
          "internalType": "uint64",
          "name": "expires",
          "type": "uint64"
        }
      ],
      "name": "UpdateUser",
      "type": "event"
    },
    {
      "inputs": [
        {
          "internalType": "address",
          "name": "to",
          "type": "address"
        },
        {
          "internalType": "uint256",
          "name": "tokenId",
          "type": "uint256"
        }
      ],
      "name": "approve",
      "outputs": [],
      "stateMutability": "nonpayable",
      "type": "function"
    },
    {
      "inputs": [
        {
          "internalType": "uint256",
          "name": "",
          "type": "uint256"
        }
      ],
      "name": "assistantsGroups",
      "outputs": [
        {
          "internalType": "string",
          "name": "assistantID",
          "type": "string"
        },
        {
          "internalType": "uint256",
          "name": "pricePerHour",
          "type": "uint256"
        },
        {
          "internalType": "address",
          "name": "owner",
          "type": "address"
        }
      ],
      "stateMutability": "view",
      "type": "function"
    },
    {
      "inputs": [
        {
          "internalType": "address",
          "name": "owner",
          "type": "address"
        }
      ],
      "name": "balanceOf",
      "outputs": [
        {
          "internalType": "uint256",
          "name": "",
          "type": "uint256"
        }
      ],
      "stateMutability": "view",
      "type": "function"
    },
    {
      "inputs": [],
      "name": "blockerT",
      "outputs": [
        {
          "internalType": "uint256",
          "name": "",
          "type": "uint256"
        }
      ],
      "stateMutability": "view",
      "type": "function"
    },
    {
      "inputs": [],
      "name": "cleanUpOldRentals",
      "outputs": [],
      "stateMutability": "nonpayable",
      "type": "function"
    },
    {
      "inputs": [
        {
          "internalType": "uint256",
          "name": "tokenId",
          "type": "uint256"
        }
      ],
      "name": "extendRental",
      "outputs": [],
      "stateMutability": "payable",
      "type": "function"
    },
    {
      "inputs": [],
      "name": "getAllAssistantDetails",
      "outputs": [
        {
          "components": [
            {
              "internalType": "string",
              "name": "assistantID",
              "type": "string"
            },
            {
              "internalType": "uint256",
              "name": "pricePerHour",
              "type": "uint256"
            },
            {
              "internalType": "address",
              "name": "owner",
              "type": "address"
            }
          ],
          "internalType": "struct GPTStore.Assistant[]",
          "name": "",
          "type": "tuple[]"
        }
      ],
      "stateMutability": "view",
      "type": "function"
    },
    {
      "inputs": [
        {
          "internalType": "uint256",
          "name": "tokenId",
          "type": "uint256"
        }
      ],
      "name": "getApproved",
      "outputs": [
        {
          "internalType": "address",
          "name": "",
          "type": "address"
        }
      ],
      "stateMutability": "view",
      "type": "function"
    },
    {
      "inputs": [],
      "name": "getUserRentedAssistants",
      "outputs": [
        {
          "components": [
            {
              "internalType": "address",
              "name": "user",
              "type": "address"
            },
            {
              "internalType": "string",
              "name": "URI",
              "type": "string"
            },
            {
              "internalType": "uint64",
              "name": "expires",
              "type": "uint64"
            },
            {
              "internalType": "uint256",
              "name": "payment",
              "type": "uint256"
            },
            {
              "internalType": "uint256",
              "name": "assistantNo",
              "type": "uint256"
            },
            {
              "internalType": "uint256",
              "name": "timeRequested",
              "type": "uint256"
            }
          ],
          "internalType": "struct GPTStore.UserInfo[]",
          "name": "",
          "type": "tuple[]"
        }
      ],
      "stateMutability": "nonpayable",
      "type": "function"
    },
    {
      "inputs": [
        {
          "internalType": "address",
          "name": "owner",
          "type": "address"
        },
        {
          "internalType": "address",
          "name": "operator",
          "type": "address"
        }
      ],
      "name": "isApprovedForAll",
      "outputs": [
        {
          "internalType": "bool",
          "name": "",
          "type": "bool"
        }
      ],
      "stateMutability": "view",
      "type": "function"
    },
    {
      "inputs": [],
      "name": "maxRentalTime",
      "outputs": [
        {
          "internalType": "uint256",
          "name": "",
          "type": "uint256"
        }
      ],
      "stateMutability": "view",
      "type": "function"
    },
    {
      "inputs": [],
      "name": "minRentalTime",
      "outputs": [
        {
          "internalType": "uint256",
          "name": "",
          "type": "uint256"
        }
      ],
      "stateMutability": "view",
      "type": "function"
    },
    {
      "inputs": [],
      "name": "name",
      "outputs": [
        {
          "internalType": "string",
          "name": "",
          "type": "string"
        }
      ],
      "stateMutability": "view",
      "type": "function"
    },
    {
      "inputs": [
        {
          "internalType": "uint256",
          "name": "tokenId",
          "type": "uint256"
        }
      ],
      "name": "ownerOf",
      "outputs": [
        {
          "internalType": "address",
          "name": "",
          "type": "address"
        }
      ],
      "stateMutability": "view",
      "type": "function"
    },
    {
      "inputs": [
        {
          "internalType": "uint256",
          "name": "index",
          "type": "uint256"
        }
      ],
      "name": "removeInvalidRentedAssistant",
      "outputs": [],
      "stateMutability": "nonpayable",
      "type": "function"
    },
    {
      "inputs": [
        {
          "internalType": "uint256",
          "name": "id",
          "type": "uint256"
        }
      ],
      "name": "removeTemplate",
      "outputs": [],
      "stateMutability": "nonpayable",
      "type": "function"
    },
    {
      "inputs": [
        {
          "internalType": "uint256",
          "name": "assistantNo",
          "type": "uint256"
        }
      ],
      "name": "rent",
      "outputs": [],
      "stateMutability": "payable",
      "type": "function"
    },
    {
      "inputs": [
        {
          "internalType": "address",
          "name": "from",
          "type": "address"
        },
        {
          "internalType": "address",
          "name": "to",
          "type": "address"
        },
        {
          "internalType": "uint256",
          "name": "tokenId",
          "type": "uint256"
        }
      ],
      "name": "safeTransferFrom",
      "outputs": [],
      "stateMutability": "nonpayable",
      "type": "function"
    },
    {
      "inputs": [
        {
          "internalType": "address",
          "name": "from",
          "type": "address"
        },
        {
          "internalType": "address",
          "name": "to",
          "type": "address"
        },
        {
          "internalType": "uint256",
          "name": "tokenId",
          "type": "uint256"
        },
        {
          "internalType": "bytes",
          "name": "data",
          "type": "bytes"
        }
      ],
      "name": "safeTransferFrom",
      "outputs": [],
      "stateMutability": "nonpayable",
      "type": "function"
    },
    {
      "inputs": [
        {
          "internalType": "address",
          "name": "operator",
          "type": "address"
        },
        {
          "internalType": "bool",
          "name": "approved",
          "type": "bool"
        }
      ],
      "name": "setApprovalForAll",
      "outputs": [],
      "stateMutability": "nonpayable",
      "type": "function"
    },
    {
      "inputs": [
        {
          "internalType": "string",
          "name": "assistantId",
          "type": "string"
        },
        {
          "internalType": "uint256",
          "name": "priceHour",
          "type": "uint256"
        }
      ],
      "name": "setAssistants",
      "outputs": [],
      "stateMutability": "nonpayable",
      "type": "function"
    },
    {
      "inputs": [
        {
          "internalType": "uint256",
          "name": "time",
          "type": "uint256"
        }
      ],
      "name": "setMaxRentalTime",
      "outputs": [],
      "stateMutability": "nonpayable",
      "type": "function"
    },
    {
      "inputs": [
        {
          "internalType": "uint256",
          "name": "time",
          "type": "uint256"
        }
      ],
      "name": "setMinRentalTime",
      "outputs": [],
      "stateMutability": "nonpayable",
      "type": "function"
    },
    {
      "inputs": [
        {
          "internalType": "uint256",
          "name": "",
          "type": "uint256"
        },
        {
          "internalType": "address",
          "name": "",
          "type": "address"
        },
        {
          "internalType": "uint64",
          "name": "",
          "type": "uint64"
        }
      ],
      "name": "setUser",
      "outputs": [],
      "stateMutability": "pure",
      "type": "function"
    },
    {
      "inputs": [
        {
          "internalType": "uint256",
          "name": "tokenId",
          "type": "uint256"
        }
      ],
      "name": "stopRental",
      "outputs": [],
      "stateMutability": "nonpayable",
      "type": "function"
    },
    {
      "inputs": [
        {
          "internalType": "bytes4",
          "name": "interfaceId",
          "type": "bytes4"
        }
      ],
      "name": "supportsInterface",
      "outputs": [
        {
          "internalType": "bool",
          "name": "",
          "type": "bool"
        }
      ],
      "stateMutability": "view",
      "type": "function"
    },
    {
      "inputs": [],
      "name": "symbol",
      "outputs": [
        {
          "internalType": "string",
          "name": "",
          "type": "string"
        }
      ],
      "stateMutability": "view",
      "type": "function"
    },
    {
      "inputs": [
        {
          "internalType": "uint256",
          "name": "tokenId",
          "type": "uint256"
        }
      ],
      "name": "tokenURI",
      "outputs": [
        {
          "internalType": "string",
          "name": "",
          "type": "string"
        }
      ],
      "stateMutability": "view",
      "type": "function"
    },
    {
      "inputs": [
        {
          "internalType": "address",
          "name": "from",
          "type": "address"
        },
        {
          "internalType": "address",
          "name": "to",
          "type": "address"
        },
        {
          "internalType": "uint256",
          "name": "tokenId",
          "type": "uint256"
        }
      ],
      "name": "transferFrom",
      "outputs": [],
      "stateMutability": "nonpayable",
      "type": "function"
    },
    {
      "inputs": [
        {
          "internalType": "uint256",
          "name": "tokenId",
          "type": "uint256"
        }
      ],
      "name": "userExpires",
      "outputs": [
        {
          "internalType": "uint256",
          "name": "",
          "type": "uint256"
        }
      ],
      "stateMutability": "view",
      "type": "function"
    },
    {
      "inputs": [
        {
          "internalType": "uint256",
          "name": "tokenId",
          "type": "uint256"
        }
      ],
      "name": "userOf",
      "outputs": [
        {
          "internalType": "address",
          "name": "",
          "type": "address"
        }
      ],
      "stateMutability": "view",
      "type": "function"
    }
  ],
  "bytecode": "0x608060405260016008556001600955610708600c5562278d00600d553480156200002857600080fd5b506040518060400160405280600881526020017f47505453746f72650000000000000000000000000000000000000000000000008152506040518060400160405280600381526020017f47505400000000000000000000000000000000000000000000000000000000008152508160009081620000a6919062000384565b508060019081620000b8919062000384565b505050600160078190555033600a60006101000a81548173ffffffffffffffffffffffffffffffffffffffff021916908373ffffffffffffffffffffffffffffffffffffffff1602179055506200046b565b600081519050919050565b7f4e487b7100000000000000000000000000000000000000000000000000000000600052604160045260246000fd5b7f4e487b7100000000000000000000000000000000000000000000000000000000600052602260045260246000fd5b600060028204905060018216806200018c57607f821691505b602082108103620001a257620001a162000144565b5b50919050565b60008190508160005260206000209050919050565b60006020601f8301049050919050565b600082821b905092915050565b6000600883026200020c7fffffffffffffffffffffffffffffffffffffffffffffffffffffffffffffffff82620001cd565b620002188683620001cd565b95508019841693508086168417925050509392505050565b6000819050919050565b6000819050919050565b6000620002656200025f620002598462000230565b6200023a565b62000230565b9050919050565b6000819050919050565b620002818362000244565b6200029962000290826200026c565b848454620001da565b825550505050565b600090565b620002b0620002a1565b620002bd81848462000276565b505050565b5b81811015620002e557620002d9600082620002a6565b600181019050620002c3565b5050565b601f8211156200033457620002fe81620001a8565b6200030984620001bd565b8101602085101562000319578190505b620003316200032885620001bd565b830182620002c2565b50505b505050565b600082821c905092915050565b6000620003596000198460080262000339565b1980831691505092915050565b600062000374838362000346565b9150826002028217905092915050565b6200038f826200010a565b67ffffffffffffffff811115620003ab57620003aa62000115565b5b620003b7825462000173565b620003c4828285620002e9565b600060209050601f831160018114620003fc5760008415620003e7578287015190505b620003f3858262000366565b86555062000463565b601f1984166200040c86620001a8565b60005b8281101562000436578489015182556001820191506020850194506020810190506200040f565b8683101562000456578489015162000452601f89168262000346565b8355505b6001600288020188555050505b505050505050565b614b1b806200047b6000396000f3fe6080604052600436106101d85760003560e01c80636afe801111610102578063b88d4fde11610095578063cc505cee11610064578063cc505cee146106c1578063e030565e146106ea578063e1eb3ea914610713578063e985e9c51461072f576101d8565b8063b88d4fde146105f5578063c04d0ab71461061e578063c2f1f14a14610647578063c87b56dd14610684576101d8565b80637dbed446116100d15780637dbed4461461054d5780638fc88c481461056457806395d89b41146105a1578063a22cb465146105cc576101d8565b80636afe8011146104a2578063707c3952146104cb57806370a08231146104f45780637456be7d14610531576101d8565b806323b872dd1161017a578063543d937c11610149578063543d937c146103e45780635ebbfd471461040f5780636352211e1461043a57806367c5d1b114610477576101d8565b806323b872dd1461033c5780632ce7a0171461036557806342842e0e146103905780634aa45565146103b9576101d8565b8063095ea7b3116101b6578063095ea7b314610282578063156ecc3d146102ab578063166ce434146102d457806320f8a14d146102fd576101d8565b806301ffc9a7146101dd57806306fdde031461021a578063081812fc14610245575b600080fd5b3480156101e957600080fd5b5061020460048036038101906101ff91906135b4565b61076c565b60405161021191906135fc565b60405180910390f35b34801561022657600080fd5b5061022f6107e6565b60405161023c91906136a7565b60405180910390f35b34801561025157600080fd5b5061026c600480360381019061026791906136ff565b610878565b604051610279919061376d565b60405180910390f35b34801561028e57600080fd5b506102a960048036038101906102a491906137b4565b610894565b005b3480156102b757600080fd5b506102d260048036038101906102cd91906136ff565b6108aa565b005b3480156102e057600080fd5b506102fb60048036038101906102f691906136ff565b610c06565b005b34801561030957600080fd5b50610324600480360381019061031f91906136ff565b610c10565b60405161033393929190613803565b60405180910390f35b34801561034857600080fd5b50610363600480360381019061035e9190613841565b610ce2565b005b34801561037157600080fd5b5061037a610de4565b6040516103879190613894565b60405180910390f35b34801561039c57600080fd5b506103b760048036038101906103b29190613841565b610dea565b005b3480156103c557600080fd5b506103ce610e0a565b6040516103db9190613894565b60405180910390f35b3480156103f057600080fd5b506103f9610e12565b6040516104069190613a85565b60405180910390f35b34801561041b57600080fd5b506104246110d2565b6040516104319190613bb9565b60405180910390f35b34801561044657600080fd5b50610461600480360381019061045c91906136ff565b6112a8565b60405161046e919061376d565b60405180910390f35b34801561048357600080fd5b5061048c6112ba565b6040516104999190613894565b60405180910390f35b3480156104ae57600080fd5b506104c960048036038101906104c491906136ff565b6112c0565b005b3480156104d757600080fd5b506104f260048036038101906104ed91906136ff565b611396565b005b34801561050057600080fd5b5061051b60048036038101906105169190613bdb565b6113a0565b6040516105289190613894565b60405180910390f35b61054b600480360381019061054691906136ff565b61145a565b005b34801561055957600080fd5b5061056261195c565b005b34801561057057600080fd5b5061058b600480360381019061058691906136ff565b6119e7565b6040516105989190613894565b60405180910390f35b3480156105ad57600080fd5b506105b6611a25565b6040516105c391906136a7565b60405180910390f35b3480156105d857600080fd5b506105f360048036038101906105ee9190613c34565b611ab7565b005b34801561060157600080fd5b5061061c60048036038101906106179190613da9565b611acd565b005b34801561062a57600080fd5b50610645600480360381019061064091906136ff565b611aea565b005b34801561065357600080fd5b5061066e600480360381019061066991906136ff565b611c2d565b60405161067b919061376d565b60405180910390f35b34801561069057600080fd5b506106ab60048036038101906106a691906136ff565b611cb2565b6040516106b891906136a7565b60405180910390f35b3480156106cd57600080fd5b506106e860048036038101906106e39190613ecd565b611dc5565b005b3480156106f657600080fd5b50610711600480360381019061070c9190613f55565b611ed1565b005b61072d600480360381019061072891906136ff565b611f0c565b005b34801561073b57600080fd5b5061075660048036038101906107519190613fa8565b612272565b60405161076391906135fc565b60405180910390f35b60007fad092b5c000000000000000000000000000000000000000000000000000000007bffffffffffffffffffffffffffffffffffffffffffffffffffffffff1916827bffffffffffffffffffffffffffffffffffffffffffffffffffffffff191614806107df57506107de82612306565b5b9050919050565b6060600080546107f590614017565b80601f016020809104026020016040519081016040528092919081815260200182805461082190614017565b801561086e5780601f106108435761010080835404028352916020019161086e565b820191906000526020600020905b81548152906001019060200180831161085157829003601f168201915b5050505050905090565b600061088382612367565b5061088d826123ef565b9050919050565b6108a682826108a161242c565b612434565b5050565b6108b2612446565b3373ffffffffffffffffffffffffffffffffffffffff166108d282611c2d565b73ffffffffffffffffffffffffffffffffffffffff1614610928576040517f08c379a000000000000000000000000000000000000000000000000000000000815260040161091f90614094565b60405180910390fd5b6000600e600083815260200190815260200160002090506000600f60008360040154815260200190815260200160002060405180606001604052908160008201805461097390614017565b80601f016020809104026020016040519081016040528092919081815260200182805461099f90614017565b80156109ec5780601f106109c1576101008083540402835291602001916109ec565b820191906000526020600020905b8154815290600101906020018083116109cf57829003601f168201915b50505050508152602001600182015481526020016002820160009054906101000a900473ffffffffffffffffffffffffffffffffffffffff1673ffffffffffffffffffffffffffffffffffffffff1673ffffffffffffffffffffffffffffffffffffffff168152505090506000603c428460020160009054906101000a900467ffffffffffffffff1667ffffffffffffffff16610a8991906140e3565b610a9391906140e3565b905060008111610ad8576040517f08c379a0000000000000000000000000000000000000000000000000000000008152600401610acf90614163565b60405180910390fd5b3373ffffffffffffffffffffffffffffffffffffffff167f381c82ace1dd48ccb61648426892270a1ceb48c6ae1f5ce2872683ec0dc0d580600854604051610b209190613894565b60405180910390a26000610e10836020015183610b3d9190614183565b610b4791906141f4565b905080471015610b8c576040517f08c379a0000000000000000000000000000000000000000000000000000000008152600401610b8390614271565b60405180910390fd5b3373ffffffffffffffffffffffffffffffffffffffff166108fc829081150290604051600060405180830381858888f19350505050158015610bd2573d6000803e3d6000fd5b5080846003016000828254610be791906140e3565b92505081905550610bf78561248c565b50505050610c03612512565b50565b80600d8190555050565b600f602052806000526040600020600091509050806000018054610c3390614017565b80601f0160208091040260200160405190810160405280929190818152602001828054610c5f90614017565b8015610cac5780601f10610c8157610100808354040283529160200191610cac565b820191906000526020600020905b815481529060010190602001808311610c8f57829003601f168201915b5050505050908060010154908060020160009054906101000a900473ffffffffffffffffffffffffffffffffffffffff16905083565b600073ffffffffffffffffffffffffffffffffffffffff168273ffffffffffffffffffffffffffffffffffffffff1603610d545760006040517f64a0ae92000000000000000000000000000000000000000000000000000000008152600401610d4b919061376d565b60405180910390fd5b6000610d688383610d6361242c565b61251c565b90508373ffffffffffffffffffffffffffffffffffffffff168173ffffffffffffffffffffffffffffffffffffffff1614610dde578382826040517f64283d7b000000000000000000000000000000000000000000000000000000008152600401610dd593929190614291565b60405180910390fd5b50505050565b600c5481565b610e0583838360405180602001604052806000815250611acd565b505050565b600042905090565b60606000601060003373ffffffffffffffffffffffffffffffffffffffff1673ffffffffffffffffffffffffffffffffffffffff16815260200190815260200160002090506000818054905067ffffffffffffffff811115610e7757610e76613c7e565b5b604051908082528060200260200182016040528015610eb057816020015b610e9d61345e565b815260200190600190039081610e955790505b5090506000805b83805490508110156110c5576000848281548110610ed857610ed76142c8565b5b906000526020600020015490503373ffffffffffffffffffffffffffffffffffffffff16610f0582611c2d565b73ffffffffffffffffffffffffffffffffffffffff16036110a757600e60008281526020019081526020016000206040518060c00160405290816000820160009054906101000a900473ffffffffffffffffffffffffffffffffffffffff1673ffffffffffffffffffffffffffffffffffffffff1673ffffffffffffffffffffffffffffffffffffffff168152602001600182018054610fa490614017565b80601f0160208091040260200160405190810160405280929190818152602001828054610fd090614017565b801561101d5780601f10610ff25761010080835404028352916020019161101d565b820191906000526020600020905b81548152906001019060200180831161100057829003601f168201915b505050505081526020016002820160009054906101000a900467ffffffffffffffff1667ffffffffffffffff1667ffffffffffffffff1681526020016003820154815260200160048201548152602001600582015481525050848481518110611089576110886142c8565b5b6020026020010181905250828061109f906142f7565b9350506110b1565b6110b0826112c0565b5b5080806110bd906142f7565b915050610eb7565b5080825281935050505090565b60606000600b8054905067ffffffffffffffff8111156110f5576110f4613c7e565b5b60405190808252806020026020018201604052801561112e57816020015b61111b6134b4565b8152602001906001900390816111135790505b50905060005b600b805490508110156112a057600f6000600b8381548110611159576111586142c8565b5b9060005260206000200154815260200190815260200160002060405180606001604052908160008201805461118d90614017565b80601f01602080910402602001604051908101604052809291908181526020018280546111b990614017565b80156112065780601f106111db57610100808354040283529160200191611206565b820191906000526020600020905b8154815290600101906020018083116111e957829003601f168201915b50505050508152602001600182015481526020016002820160009054906101000a900473ffffffffffffffffffffffffffffffffffffffff1673ffffffffffffffffffffffffffffffffffffffff1673ffffffffffffffffffffffffffffffffffffffff1681525050828281518110611282576112816142c8565b5b60200260200101819052508080611298906142f7565b915050611134565b508091505090565b60006112b382612367565b9050919050565b600d5481565b6000601060003373ffffffffffffffffffffffffffffffffffffffff1673ffffffffffffffffffffffffffffffffffffffff16815260200190815260200160002090506001818054905061131491906140e3565b82101561136b57806001828054905061132d91906140e3565b8154811061133e5761133d6142c8565b5b906000526020600020015481838154811061135c5761135b6142c8565b5b90600052602060002001819055505b8080548061137c5761137b61433f565b5b600190038181906000526020600020016000905590555050565b80600c8190555050565b60008073ffffffffffffffffffffffffffffffffffffffff168273ffffffffffffffffffffffffffffffffffffffff16036114135760006040517f89c62b6400000000000000000000000000000000000000000000000000000000815260040161140a919061376d565b60405180910390fd5b600360008373ffffffffffffffffffffffffffffffffffffffff1673ffffffffffffffffffffffffffffffffffffffff168152602001908152602001600020549050919050565b611462612446565b6000600f600083815260200190815260200160002060010154116114bb576040517f08c379a00000000000000000000000000000000000000000000000000000000081526004016114b2906143ba565b60405180910390fd5b6114c361195c565b6000600f600083815260200190815260200160002060010154610e10346114ea9190614183565b6114f491906141f4565b9050600c5481101561153b576040517f08c379a000000000000000000000000000000000000000000000000000000000815260040161153290614426565b60405180910390fd5b600d54811115611580576040517f08c379a000000000000000000000000000000000000000000000000000000000815260040161157790614492565b60405180910390fd5b3373ffffffffffffffffffffffffffffffffffffffff167f381c82ace1dd48ccb61648426892270a1ceb48c6ae1f5ce2872683ec0dc0d5806008546040516115c89190613894565b60405180910390a2600f600083815260200190815260200160002060020160009054906101000a900473ffffffffffffffffffffffffffffffffffffffff1673ffffffffffffffffffffffffffffffffffffffff166108fc349081150290604051600060405180830381858888f1935050505015801561164c573d6000803e3d6000fd5b5061165933600854612736565b611703600854600f6000858152602001908152602001600020600001805461168090614017565b80601f01602080910402602001604051908101604052809291908181526020018280546116ac90614017565b80156116f95780601f106116ce576101008083540402835291602001916116f9565b820191906000526020600020905b8154815290600101906020018083116116dc57829003601f168201915b505050505061282f565b6000600e600060085481526020019081526020016000209050600f60008481526020019081526020016000206000018160010190816117429190614689565b50338160000160006101000a81548173ffffffffffffffffffffffffffffffffffffffff021916908373ffffffffffffffffffffffffffffffffffffffff16021790555081426117929190614771565b8160020160006101000a81548167ffffffffffffffff021916908367ffffffffffffffff1602179055508281600401819055508181600501819055503481600301819055508060000160009054906101000a900473ffffffffffffffffffffffffffffffffffffffff1673ffffffffffffffffffffffffffffffffffffffff166008547f4e06b4e7000e659094299b3533b47b6aa8ad048e95e872d23d1f4ee55af89cfe8360020160009054906101000a900467ffffffffffffffff1660405161185c91906147b4565b60405180910390a3601060003373ffffffffffffffffffffffffffffffffffffffff1673ffffffffffffffffffffffffffffffffffffffff1681526020019081526020016000206008549080600181540180825580915050600190039060005260206000200160009091909190915055600860008154809291906118df906142f7565b9190505550600160116000600854815260200190815260200160002060003373ffffffffffffffffffffffffffffffffffffffff1673ffffffffffffffffffffffffffffffffffffffff16815260200190815260200160002060006101000a81548160ff0219169083151502179055505050611959612512565b50565b6000600190505b6008548110156119e457600073ffffffffffffffffffffffffffffffffffffffff1661198e82611c2d565b73ffffffffffffffffffffffffffffffffffffffff16141580156119b95750426119b7826119e7565b105b156119d1576119c78161288b565b6119d08161248c565b5b80806119dc906142f7565b915050611963565b50565b6000600e600083815260200190815260200160002060020160009054906101000a900467ffffffffffffffff1667ffffffffffffffff169050919050565b606060018054611a3490614017565b80601f0160208091040260200160405190810160405280929190818152602001828054611a6090614017565b8015611aad5780601f10611a8257610100808354040283529160200191611aad565b820191906000526020600020905b815481529060010190602001808311611a9057829003601f168201915b5050505050905090565b611ac9611ac261242c565b83836129c4565b5050565b611ad8848484610ce2565b611ae484848484612b33565b50505050565b600f600082815260200190815260200160002060008082016000611b0e91906134eb565b60018201600090556002820160006101000a81549073ffffffffffffffffffffffffffffffffffffffff02191690555050600080600090505b600b80549050811015611b945782600b8281548110611b6957611b686142c8565b5b906000526020600020015403611b8157809150611b94565b8080611b8c906142f7565b915050611b47565b506001600b80549050611ba791906140e3565b811015611c0157600b6001600b80549050611bc291906140e3565b81548110611bd357611bd26142c8565b5b9060005260206000200154600b8281548110611bf257611bf16142c8565b5b90600052602060002001819055505b600b805480611c1357611c1261433f565b5b600190038181906000526020600020016000905590555050565b600042600e600084815260200190815260200160002060020160009054906101000a900467ffffffffffffffff1667ffffffffffffffff1610611ca857600e600083815260200190815260200160002060000160009054906101000a900473ffffffffffffffffffffffffffffffffffffffff169050611cad565b600090505b919050565b6060611cbd82612367565b506000600660008481526020019081526020016000208054611cde90614017565b80601f0160208091040260200160405190810160405280929190818152602001828054611d0a90614017565b8015611d575780601f10611d2c57610100808354040283529160200191611d57565b820191906000526020600020905b815481529060010190602001808311611d3a57829003601f168201915b505050505090506000611d68612cea565b90506000815103611d7d578192505050611dc0565b600082511115611db2578082604051602001611d9a92919061480b565b60405160208183030381529060405292505050611dc0565b611dbb84612d01565b925050505b919050565b6000633b9aca0082611dd79190614183565b905060405180606001604052808481526020018281526020013373ffffffffffffffffffffffffffffffffffffffff16815250600f600060095481526020019081526020016000206000820151816000019081611e34919061482f565b506020820151816001015560408201518160020160006101000a81548173ffffffffffffffffffffffffffffffffffffffff021916908373ffffffffffffffffffffffffffffffffffffffff160217905550905050600b600954908060018154018082558091505060019003906000526020600020016000909190919091505560096000815480929190611ec7906142f7565b9190505550505050565b6040517f08c379a0000000000000000000000000000000000000000000000000000000008152600401611f039061494d565b60405180910390fd5b611f14612446565b3373ffffffffffffffffffffffffffffffffffffffff16611f3482611c2d565b73ffffffffffffffffffffffffffffffffffffffff1614611f8a576040517f08c379a0000000000000000000000000000000000000000000000000000000008152600401611f8190614094565b60405180910390fd5b6000600e600083815260200190815260200160002090506000600f600083600401548152602001908152602001600020604051806060016040529081600082018054611fd590614017565b80601f016020809104026020016040519081016040528092919081815260200182805461200190614017565b801561204e5780601f106120235761010080835404028352916020019161204e565b820191906000526020600020905b81548152906001019060200180831161203157829003601f168201915b50505050508152602001600182015481526020016002820160009054906101000a900473ffffffffffffffffffffffffffffffffffffffff1673ffffffffffffffffffffffffffffffffffffffff1673ffffffffffffffffffffffffffffffffffffffff1681525050905060008160200151610e10346120ce9190614183565b6120d891906141f4565b9050600d54426120e89190614771565b818460020160009054906101000a900467ffffffffffffffff1667ffffffffffffffff166121169190614771565b10612156576040517f08c379a000000000000000000000000000000000000000000000000000000000815260040161214d906149b9565b60405180910390fd5b3373ffffffffffffffffffffffffffffffffffffffff167f381c82ace1dd48ccb61648426892270a1ceb48c6ae1f5ce2872683ec0dc0d58060085460405161219e9190613894565b60405180910390a2816040015173ffffffffffffffffffffffffffffffffffffffff166108fc349081150290604051600060405180830381858888f193505050501580156121f0573d6000803e3d6000fd5b50808360020160009054906101000a900467ffffffffffffffff1667ffffffffffffffff1661221f9190614771565b8360020160006101000a81548167ffffffffffffffff021916908367ffffffffffffffff1602179055503483600301600082825461225d9190614771565b9250508190555050505061226f612512565b50565b6000600560008473ffffffffffffffffffffffffffffffffffffffff1673ffffffffffffffffffffffffffffffffffffffff16815260200190815260200160002060008373ffffffffffffffffffffffffffffffffffffffff1673ffffffffffffffffffffffffffffffffffffffff16815260200190815260200160002060009054906101000a900460ff16905092915050565b6000634906490660e01b7bffffffffffffffffffffffffffffffffffffffffffffffffffffffff1916827bffffffffffffffffffffffffffffffffffffffffffffffffffffffff19161480612360575061235f82612d6a565b5b9050919050565b60008061237383612e4c565b9050600073ffffffffffffffffffffffffffffffffffffffff168173ffffffffffffffffffffffffffffffffffffffff16036123e657826040517f7e2732890000000000000000000000000000000000000000000000000000000081526004016123dd9190613894565b60405180910390fd5b80915050919050565b60006004600083815260200190815260200160002060009054906101000a900473ffffffffffffffffffffffffffffffffffffffff169050919050565b600033905090565b6124418383836001612e89565b505050565b600260075403612482576040517f3ee5aeb500000000000000000000000000000000000000000000000000000000815260040160405180910390fd5b6002600781905550565b600061249b600083600061251c565b9050600073ffffffffffffffffffffffffffffffffffffffff168173ffffffffffffffffffffffffffffffffffffffff160361250e57816040517f7e2732890000000000000000000000000000000000000000000000000000000081526004016125059190613894565b60405180910390fd5b5050565b6001600781905550565b60008061252884612e4c565b9050600073ffffffffffffffffffffffffffffffffffffffff168373ffffffffffffffffffffffffffffffffffffffff161461256a5761256981848661304e565b5b600073ffffffffffffffffffffffffffffffffffffffff168173ffffffffffffffffffffffffffffffffffffffff16146125fb576125ac600085600080612e89565b6001600360008373ffffffffffffffffffffffffffffffffffffffff1673ffffffffffffffffffffffffffffffffffffffff168152602001908152602001600020600082825403925050819055505b600073ffffffffffffffffffffffffffffffffffffffff168573ffffffffffffffffffffffffffffffffffffffff161461267e576001600360008773ffffffffffffffffffffffffffffffffffffffff1673ffffffffffffffffffffffffffffffffffffffff168152602001908152602001600020600082825401925050819055505b846002600086815260200190815260200160002060006101000a81548173ffffffffffffffffffffffffffffffffffffffff021916908373ffffffffffffffffffffffffffffffffffffffff160217905550838573ffffffffffffffffffffffffffffffffffffffff168273ffffffffffffffffffffffffffffffffffffffff167fddf252ad1be2c89b69c2b068fc378daa952ba7f163c4a11628f55a4df523b3ef60405160405180910390a4809150509392505050565b600073ffffffffffffffffffffffffffffffffffffffff168273ffffffffffffffffffffffffffffffffffffffff16036127a85760006040517f64a0ae9200000000000000000000000000000000000000000000000000000000815260040161279f919061376d565b60405180910390fd5b60006127b68383600061251c565b9050600073ffffffffffffffffffffffffffffffffffffffff168173ffffffffffffffffffffffffffffffffffffffff161461282a5760006040517f73c6ac6e000000000000000000000000000000000000000000000000000000008152600401612821919061376d565b60405180910390fd5b505050565b8060066000848152602001908152602001600020908161284f919061482f565b507ff8e1a15aba9398e019f0b49df1a4fde98ee17ae345cb5f6b5e2c27f5033e8ce78260405161287f9190613894565b60405180910390a15050565b600061289682611c2d565b90506000601060008373ffffffffffffffffffffffffffffffffffffffff1673ffffffffffffffffffffffffffffffffffffffff1681526020019081526020016000209050600080600090505b828054905081101561292e5784838281548110612903576129026142c8565b5b90600052602060002001540361291b5780915061292e565b8080612926906142f7565b9150506128e3565b506001828054905061294091906140e3565b81101561299757816001838054905061295991906140e3565b8154811061296a576129696142c8565b5b9060005260206000200154828281548110612988576129876142c8565b5b90600052602060002001819055505b818054806129a8576129a761433f565b5b6001900381819060005260206000200160009055905550505050565b600073ffffffffffffffffffffffffffffffffffffffff168273ffffffffffffffffffffffffffffffffffffffff1603612a3557816040517f5b08ba18000000000000000000000000000000000000000000000000000000008152600401612a2c919061376d565b60405180910390fd5b80600560008573ffffffffffffffffffffffffffffffffffffffff1673ffffffffffffffffffffffffffffffffffffffff16815260200190815260200160002060008473ffffffffffffffffffffffffffffffffffffffff1673ffffffffffffffffffffffffffffffffffffffff16815260200190815260200160002060006101000a81548160ff0219169083151502179055508173ffffffffffffffffffffffffffffffffffffffff168373ffffffffffffffffffffffffffffffffffffffff167f17307eab39ab6107e8899845ad3d59bd9653f200f220920489ca2b5937696c3183604051612b2691906135fc565b60405180910390a3505050565b60008373ffffffffffffffffffffffffffffffffffffffff163b1115612ce4578273ffffffffffffffffffffffffffffffffffffffff1663150b7a02612b7761242c565b8685856040518563ffffffff1660e01b8152600401612b999493929190614a2e565b6020604051808303816000875af1925050508015612bd557506040513d601f19601f82011682018060405250810190612bd29190614a8f565b60015b612c59573d8060008114612c05576040519150601f19603f3d011682016040523d82523d6000602084013e612c0a565b606091505b506000815103612c5157836040517f64a0ae92000000000000000000000000000000000000000000000000000000008152600401612c48919061376d565b60405180910390fd5b805181602001fd5b63150b7a0260e01b7bffffffffffffffffffffffffffffffffffffffffffffffffffffffff1916817bffffffffffffffffffffffffffffffffffffffffffffffffffffffff191614612ce257836040517f64a0ae92000000000000000000000000000000000000000000000000000000008152600401612cd9919061376d565b60405180910390fd5b505b50505050565b606060405180602001604052806000815250905090565b6060612d0c82612367565b506000612d17612cea565b90506000815111612d375760405180602001604052806000815250612d62565b80612d4184613112565b604051602001612d5292919061480b565b6040516020818303038152906040525b915050919050565b60007f80ac58cd000000000000000000000000000000000000000000000000000000007bffffffffffffffffffffffffffffffffffffffffffffffffffffffff1916827bffffffffffffffffffffffffffffffffffffffffffffffffffffffff19161480612e3557507f5b5e139f000000000000000000000000000000000000000000000000000000007bffffffffffffffffffffffffffffffffffffffffffffffffffffffff1916827bffffffffffffffffffffffffffffffffffffffffffffffffffffffff1916145b80612e455750612e44826131e0565b5b9050919050565b60006002600083815260200190815260200160002060009054906101000a900473ffffffffffffffffffffffffffffffffffffffff169050919050565b8080612ec25750600073ffffffffffffffffffffffffffffffffffffffff168273ffffffffffffffffffffffffffffffffffffffff1614155b15612ff6576000612ed284612367565b9050600073ffffffffffffffffffffffffffffffffffffffff168373ffffffffffffffffffffffffffffffffffffffff1614158015612f3d57508273ffffffffffffffffffffffffffffffffffffffff168173ffffffffffffffffffffffffffffffffffffffff1614155b8015612f505750612f4e8184612272565b155b15612f9257826040517fa9fbf51f000000000000000000000000000000000000000000000000000000008152600401612f89919061376d565b60405180910390fd5b8115612ff457838573ffffffffffffffffffffffffffffffffffffffff168273ffffffffffffffffffffffffffffffffffffffff167f8c5be1e5ebec7d5bd14f71427d1e84f3dd0314c0f7b2291e5b200ac8c7c3b92560405160405180910390a45b505b836004600085815260200190815260200160002060006101000a81548173ffffffffffffffffffffffffffffffffffffffff021916908373ffffffffffffffffffffffffffffffffffffffff16021790555050505050565b61305983838361324a565b61310d57600073ffffffffffffffffffffffffffffffffffffffff168373ffffffffffffffffffffffffffffffffffffffff16036130ce57806040517f7e2732890000000000000000000000000000000000000000000000000000000081526004016130c59190613894565b60405180910390fd5b81816040517f177e802f000000000000000000000000000000000000000000000000000000008152600401613104929190614abc565b60405180910390fd5b505050565b6060600060016131218461330b565b01905060008167ffffffffffffffff8111156131405761313f613c7e565b5b6040519080825280601f01601f1916602001820160405280156131725781602001600182028036833780820191505090505b509050600082602001820190505b6001156131d5578080600190039150507f3031323334353637383961626364656600000000000000000000000000000000600a86061a8153600a85816131c9576131c86141c5565b5b04945060008503613180575b819350505050919050565b60007f01ffc9a7000000000000000000000000000000000000000000000000000000007bffffffffffffffffffffffffffffffffffffffffffffffffffffffff1916827bffffffffffffffffffffffffffffffffffffffffffffffffffffffff1916149050919050565b60008073ffffffffffffffffffffffffffffffffffffffff168373ffffffffffffffffffffffffffffffffffffffff161415801561330257508273ffffffffffffffffffffffffffffffffffffffff168473ffffffffffffffffffffffffffffffffffffffff1614806132c357506132c28484612272565b5b8061330157508273ffffffffffffffffffffffffffffffffffffffff166132e9836123ef565b73ffffffffffffffffffffffffffffffffffffffff16145b5b90509392505050565b600080600090507a184f03e93ff9f4daa797ed6e38ed64bf6a1f0100000000000000008310613369577a184f03e93ff9f4daa797ed6e38ed64bf6a1f010000000000000000838161335f5761335e6141c5565b5b0492506040810190505b6d04ee2d6d415b85acef810000000083106133a6576d04ee2d6d415b85acef8100000000838161339c5761339b6141c5565b5b0492506020810190505b662386f26fc1000083106133d557662386f26fc1000083816133cb576133ca6141c5565b5b0492506010810190505b6305f5e10083106133fe576305f5e10083816133f4576133f36141c5565b5b0492506008810190505b6127108310613423576127108381613419576134186141c5565b5b0492506004810190505b60648310613446576064838161343c5761343b6141c5565b5b0492506002810190505b600a8310613455576001810190505b80915050919050565b6040518060c00160405280600073ffffffffffffffffffffffffffffffffffffffff16815260200160608152602001600067ffffffffffffffff1681526020016000815260200160008152602001600081525090565b60405180606001604052806060815260200160008152602001600073ffffffffffffffffffffffffffffffffffffffff1681525090565b5080546134f790614017565b6000825580601f106135095750613528565b601f016020900490600052602060002090810190613527919061352b565b5b50565b5b8082111561354457600081600090555060010161352c565b5090565b6000604051905090565b600080fd5b600080fd5b60007fffffffff0000000000000000000000000000000000000000000000000000000082169050919050565b6135918161355c565b811461359c57600080fd5b50565b6000813590506135ae81613588565b92915050565b6000602082840312156135ca576135c9613552565b5b60006135d88482850161359f565b91505092915050565b60008115159050919050565b6135f6816135e1565b82525050565b600060208201905061361160008301846135ed565b92915050565b600081519050919050565b600082825260208201905092915050565b60005b83811015613651578082015181840152602081019050613636565b60008484015250505050565b6000601f19601f8301169050919050565b600061367982613617565b6136838185613622565b9350613693818560208601613633565b61369c8161365d565b840191505092915050565b600060208201905081810360008301526136c1818461366e565b905092915050565b6000819050919050565b6136dc816136c9565b81146136e757600080fd5b50565b6000813590506136f9816136d3565b92915050565b60006020828403121561371557613714613552565b5b6000613723848285016136ea565b91505092915050565b600073ffffffffffffffffffffffffffffffffffffffff82169050919050565b60006137578261372c565b9050919050565b6137678161374c565b82525050565b6000602082019050613782600083018461375e565b92915050565b6137918161374c565b811461379c57600080fd5b50565b6000813590506137ae81613788565b92915050565b600080604083850312156137cb576137ca613552565b5b60006137d98582860161379f565b92505060206137ea858286016136ea565b9150509250929050565b6137fd816136c9565b82525050565b6000606082019050818103600083015261381d818661366e565b905061382c60208301856137f4565b613839604083018461375e565b949350505050565b60008060006060848603121561385a57613859613552565b5b60006138688682870161379f565b93505060206138798682870161379f565b925050604061388a868287016136ea565b9150509250925092565b60006020820190506138a960008301846137f4565b92915050565b600081519050919050565b600082825260208201905092915050565b6000819050602082019050919050565b6138e48161374c565b82525050565b600082825260208201905092915050565b600061390682613617565b61391081856138ea565b9350613920818560208601613633565b6139298161365d565b840191505092915050565b600067ffffffffffffffff82169050919050565b61395181613934565b82525050565b613960816136c9565b82525050565b600060c08301600083015161397e60008601826138db565b506020830151848203602086015261399682826138fb565b91505060408301516139ab6040860182613948565b5060608301516139be6060860182613957565b5060808301516139d16080860182613957565b5060a08301516139e460a0860182613957565b508091505092915050565b60006139fb8383613966565b905092915050565b6000602082019050919050565b6000613a1b826138af565b613a2581856138ba565b935083602082028501613a37856138cb565b8060005b85811015613a735784840389528151613a5485826139ef565b9450613a5f83613a03565b925060208a01995050600181019050613a3b565b50829750879550505050505092915050565b60006020820190508181036000830152613a9f8184613a10565b905092915050565b600081519050919050565b600082825260208201905092915050565b6000819050602082019050919050565b60006060830160008301518482036000860152613af082826138fb565b9150506020830151613b056020860182613957565b506040830151613b1860408601826138db565b508091505092915050565b6000613b2f8383613ad3565b905092915050565b6000602082019050919050565b6000613b4f82613aa7565b613b598185613ab2565b935083602082028501613b6b85613ac3565b8060005b85811015613ba75784840389528151613b888582613b23565b9450613b9383613b37565b925060208a01995050600181019050613b6f565b50829750879550505050505092915050565b60006020820190508181036000830152613bd38184613b44565b905092915050565b600060208284031215613bf157613bf0613552565b5b6000613bff8482850161379f565b91505092915050565b613c11816135e1565b8114613c1c57600080fd5b50565b600081359050613c2e81613c08565b92915050565b60008060408385031215613c4b57613c4a613552565b5b6000613c598582860161379f565b9250506020613c6a85828601613c1f565b9150509250929050565b600080fd5b600080fd5b7f4e487b7100000000000000000000000000000000000000000000000000000000600052604160045260246000fd5b613cb68261365d565b810181811067ffffffffffffffff82111715613cd557613cd4613c7e565b5b80604052505050565b6000613ce8613548565b9050613cf48282613cad565b919050565b600067ffffffffffffffff821115613d1457613d13613c7e565b5b613d1d8261365d565b9050602081019050919050565b82818337600083830152505050565b6000613d4c613d4784613cf9565b613cde565b905082815260208101848484011115613d6857613d67613c79565b5b613d73848285613d2a565b509392505050565b600082601f830112613d9057613d8f613c74565b5b8135613da0848260208601613d39565b91505092915050565b60008060008060808587031215613dc357613dc2613552565b5b6000613dd18782880161379f565b9450506020613de28782880161379f565b9350506040613df3878288016136ea565b925050606085013567ffffffffffffffff811115613e1457613e13613557565b5b613e2087828801613d7b565b91505092959194509250565b600067ffffffffffffffff821115613e4757613e46613c7e565b5b613e508261365d565b9050602081019050919050565b6000613e70613e6b84613e2c565b613cde565b905082815260208101848484011115613e8c57613e8b613c79565b5b613e97848285613d2a565b509392505050565b600082601f830112613eb457613eb3613c74565b5b8135613ec4848260208601613e5d565b91505092915050565b60008060408385031215613ee457613ee3613552565b5b600083013567ffffffffffffffff811115613f0257613f01613557565b5b613f0e85828601613e9f565b9250506020613f1f858286016136ea565b9150509250929050565b613f3281613934565b8114613f3d57600080fd5b50565b600081359050613f4f81613f29565b92915050565b600080600060608486031215613f6e57613f6d613552565b5b6000613f7c868287016136ea565b9350506020613f8d8682870161379f565b9250506040613f9e86828701613f40565b9150509250925092565b60008060408385031215613fbf57613fbe613552565b5b6000613fcd8582860161379f565b9250506020613fde8582860161379f565b9150509250929050565b7f4e487b7100000000000000000000000000000000000000000000000000000000600052602260045260246000fd5b6000600282049050600182168061402f57607f821691505b60208210810361404257614041613fe8565b5b50919050565b7f43616c6c6572206973206e6f74206f776e657200000000000000000000000000600082015250565b600061407e601383613622565b915061408982614048565b602082019050919050565b600060208201905081810360008301526140ad81614071565b9050919050565b7f4e487b7100000000000000000000000000000000000000000000000000000000600052601160045260246000fd5b60006140ee826136c9565b91506140f9836136c9565b9250828203905081811115614111576141106140b4565b5b92915050565b7f52656e74616c2068617320616c72656164792065787069726564000000000000600082015250565b600061414d601a83613622565b915061415882614117565b602082019050919050565b6000602082019050818103600083015261417c81614140565b9050919050565b600061418e826136c9565b9150614199836136c9565b92508282026141a7816136c9565b915082820484148315176141be576141bd6140b4565b5b5092915050565b7f4e487b7100000000000000000000000000000000000000000000000000000000600052601260045260246000fd5b60006141ff826136c9565b915061420a836136c9565b92508261421a576142196141c5565b5b828204905092915050565b7f496e73756666696369656e7420636f6e74726163742062616c616e6365000000600082015250565b600061425b601d83613622565b915061426682614225565b602082019050919050565b6000602082019050818103600083015261428a8161424e565b9050919050565b60006060820190506142a6600083018661375e565b6142b360208301856137f4565b6142c0604083018461375e565b949350505050565b7f4e487b7100000000000000000000000000000000000000000000000000000000600052603260045260246000fd5b6000614302826136c9565b91507fffffffffffffffffffffffffffffffffffffffffffffffffffffffffffffffff8203614334576143336140b4565b5b600182019050919050565b7f4e487b7100000000000000000000000000000000000000000000000000000000600052603160045260246000fd5b7f417373697374616e742074656d706c617465206e6f7420666f756e6400000000600082015250565b60006143a4601c83613622565b91506143af8261436e565b602082019050919050565b600060208201905081810360008301526143d381614397565b9050919050565b7f4d696e696d756d2072656e74616c2074696d65206e6f74206d65740000000000600082015250565b6000614410601b83613622565b915061441b826143da565b602082019050919050565b6000602082019050818103600083015261443f81614403565b9050919050565b7f4578636565646564206d6178696d756d2072656e74616c2074696d6500000000600082015250565b600061447c601c83613622565b915061448782614446565b602082019050919050565b600060208201905081810360008301526144ab8161446f565b9050919050565b6000815490506144c181614017565b9050919050565b60008190508160005260206000209050919050565b60008190508160005260206000209050919050565b60006020601f8301049050919050565b600082821b905092915050565b60006008830261453f7fffffffffffffffffffffffffffffffffffffffffffffffffffffffffffffffff82614502565b6145498683614502565b95508019841693508086168417925050509392505050565b6000819050919050565b600061458661458161457c846136c9565b614561565b6136c9565b9050919050565b6000819050919050565b6145a08361456b565b6145b46145ac8261458d565b84845461450f565b825550505050565b600090565b6145c96145bc565b6145d4818484614597565b505050565b5b818110156145f8576145ed6000826145c1565b6001810190506145da565b5050565b601f82111561463d5761460e816144c8565b614617846144f2565b81016020851015614626578190505b61463a614632856144f2565b8301826145d9565b50505b505050565b600082821c905092915050565b600061466060001984600802614642565b1980831691505092915050565b6000614679838361464f565b9150826002028217905092915050565b81810361469757505061476f565b6146a0826144b2565b67ffffffffffffffff8111156146b9576146b8613c7e565b5b6146c38254614017565b6146ce8282856145fc565b6000601f8311600181146146fd57600084156146eb578287015490505b6146f5858261466d565b865550614768565b601f19841661470b876144dd565b9650614716866144c8565b60005b8281101561473e57848901548255600182019150600185019450602081019050614719565b8683101561475b5784890154614757601f89168261464f565b8355505b6001600288020188555050505b5050505050505b565b600061477c826136c9565b9150614787836136c9565b925082820190508082111561479f5761479e6140b4565b5b92915050565b6147ae81613934565b82525050565b60006020820190506147c960008301846147a5565b92915050565b600081905092915050565b60006147e582613617565b6147ef81856147cf565b93506147ff818560208601613633565b80840191505092915050565b600061481782856147da565b915061482382846147da565b91508190509392505050565b61483882613617565b67ffffffffffffffff81111561485157614850613c7e565b5b61485b8254614017565b6148668282856145fc565b600060209050601f8311600181146148995760008415614887578287015190505b614891858261466d565b8655506148f9565b601f1984166148a7866144c8565b60005b828110156148cf578489015182556001820191506020850194506020810190506148aa565b868310156148ec57848901516148e8601f89168261464f565b8355505b6001600288020188555050505b505050505050565b7f63616e6e6f74206368616e676520757365720000000000000000000000000000600082015250565b6000614937601283613622565b915061494282614901565b602082019050919050565b600060208201905081810360008301526149668161492a565b9050919050565b7f4d61782072656e74616c2074696d652065786365656465640000000000000000600082015250565b60006149a3601883613622565b91506149ae8261496d565b602082019050919050565b600060208201905081810360008301526149d281614996565b9050919050565b600081519050919050565b600082825260208201905092915050565b6000614a00826149d9565b614a0a81856149e4565b9350614a1a818560208601613633565b614a238161365d565b840191505092915050565b6000608082019050614a43600083018761375e565b614a50602083018661375e565b614a5d60408301856137f4565b8181036060830152614a6f81846149f5565b905095945050505050565b600081519050614a8981613588565b92915050565b600060208284031215614aa557614aa4613552565b5b6000614ab384828501614a7a565b91505092915050565b6000604082019050614ad1600083018561375e565b614ade60208301846137f4565b939250505056fea264697066735822122083ad4c0eede39aa755f42d5bb9e119b293654cb1fd23a7e60d77ad4bd2ea50e264736f6c63430008140033",
  "linkReferences": {},
  "deployedLinkReferences": {}
}